:020000040800F2
:10000000706A00209D010008A5010008A7010008F2
:10001000A9010008AB010008AD01000800000000C4
:100020000000000000000000000000002D1D00087E
:10003000B101000800000000491C00082F1D000845
:10004000B7010008B7010008B7010008B7010008B0
:10005000B7010008B7010008B7010008B7010008A0
:10006000B7010008B7010008B7010008B701000890
:10007000B7010008B7010008B7010008B701000880
:10008000B7010008B7010008B7010008B701000870
:10009000B7010008B7010008B7010008B701000860
:1000A000B7010008B7010008B7010008B701000850
:1000B000B7010008B7010008B7010008B701000840
:1000C000B7010008B7010008B7010008B701000830
:1000D000B7010008B7010008B7010008B701000820
:1000E000B7010008B7010008B7010008B701000810
:1000F000B7010008B7010008B7010008B701000800
:10010000B7010008B7010008B7010008B7010008EF
:10011000B7010008B7010008B7010008B7010008DF
:10012000B7010008B7010008B7010008B7010008CF
:10013000B7010008B7010008B7010008B7010008BF
:10014000B7010008B7010008B7010008B51B000897
:10015000B7010008B7010008B7010008B70100089F
:10016000B7010008B7010008B7010008B70100088F
:10017000B7010008B7010008B7010008000000003F
:10018000B7010008B7010008DFF80CD000F07AF8DA
:1001900000480047B5330008706A002006488047D1
:1001A00006480047FEE7FEE7FEE7FEE7FEE7FEE75C
:1001B000FEE7FEE7FEE7FEE7DD1D00088901000817
:1001C0002DE9F05F0546002092469B46884606468C
:1001D000814640241BE0284641464746224600F01F
:1001E00041F853465A46C01A914110D31146184659
:1001F000224600F028F82D1A67EB01084F462246E8
:100200000120002100F01FF817EB00094E41201ECD
:10021000A4F10104DFDC484631462A464346BDE8E6
:10022000F09F40EA01039B0703D009E008C9121FB1
:1002300008C0042AFAD203E011F8013B00F8013BA0
:10024000521EF9D27047202A04DB203A00FA02F14C
:10025000002070479140C2F1200320FA03F31943B4
:1002600090407047202A04DB203A21FA02F0002156
:10027000704721FA02F3D040C2F1200291400843B6
:1002800019467047064C074D06E0E06840F0010350
:1002900094E8070098471034AC42F6D3FFF778FF94
:1002A00088340008A834000870B58C1810F8015B79
:1002B00015F0070301D110F8013B2A1106D110F8FF
:1002C000012B03E010F8016B01F8016B5B1EF9D103
:1002D0002B0705D40023521E0DD401F8013BFAE789
:1002E00010F8013BCB1A921C03E013F8015B01F8F4
:1002F000015B521EF9D5A142D8D3002070BD38B59C
:1003000004468DF8000001222021684600F072F8B2
:10031000200A8DF8000001222421684600F06AF8C6
:1003200038BD0000FEB5064600250122242102A8A2
:1003300000F038F801222821684600F033F86C46B6
:1003400001222921601C00F02DF801222A21A01C85
:1003500000F028F801222B21E01C00F023F80122F4
:100360002C21201D00F01EF801222D21601D00F01F
:1003700019F800BF04EB450090F9001090F9010056
:1003800001EB002000EE100AB8EEC00ABDEEC00A74
:1003900010EE100A26F815006D1CEDB2032DE9D3FE
:1003A000FEBD00002DE9F04114460546012A02D9A0
:1003B00041F0C00601E041F080060D4F0022082107
:1003C000384600F003FA304601F09AFC06E00020BF
:1003D00001F096FC641E05F8010BA4B2002CF6D1C6
:1003E0003846BDE8F0410122082100F0EFB90000D5
:1003F000001002402DE9F041124F14460E4605460A
:1004000001220821384600F0E1F9012C01D946F01B
:10041000400600220821384600F0D8F9304601F0A5
:100420006FFC05E0287801F06BFC641EA4B26D1C23
:10043000002CF7D13846BDE8F0410122082100F038
:10044000C5B900000010024010B54FF47A7000F0FA
:10045000D3F800F085F80B4C3F280CD000F0C4F81E
:1004600041F66700FFF74BFF20460122BDE8104030
:10047000D10300F0ABB901221103204600F0A6F928
:10048000EEE70000000C02402DE9FC470020009040
:1004900001906846FFF746FF2E48BDF90050BDF9B0
:1004A0000240BDF8041011220270552242702A0A3F
:1004B0008270C570220A027144710A0A8271C17188
:1004C000082100F07BF8002D01DA684200E02846A0
:1004D000002C01DA614200E021461F4A1F4E5342C0
:1004E0004FF480474FF480584FF400594FF4004ABE
:1004F000884209DD9D4202DD012239460DE0954228
:100500000EDA0122414608E09C4202DD0122494602
:1005100003E0944204DA01225146304600F056F9D5
:10052000142000F069F800224946304600F04EF9E8
:1005300000224146304600F049F900223946304653
:1005400000F044F900225146304600F03FF9BDE882
:10055000FC87000048000020C0E0FFFF000C0240C4
:1005600008B500208DF8000001220F216846FFF732
:1005700019FF9DF8000008BD00207047002070475B
:1005800010B500220549064801F022FD0349044840
:10059000403901F017FD002010BD00002C0A00209A
:1005A000D801002010B50146034801F00BFD0248B8
:1005B00001F0ECFC002010BDD8010020094A10B564
:1005C000D2F81822D2F814220AB1012010BD0A462E
:1005D0000146044801F0FCFCBDE81040014801F070
:1005E00037BD0000D801002001229103014800F02E
:1005F000EDB80000000C024070B5044600F0ECF8C5
:100600000546601C02D004480078044400F0E4F879
:10061000401BA042FAD370BD500000202DE9F84FD6
:10062000DFF87CB100224FF001084FF0030A4FF0D1
:100630000F090BF1040E00BF0B6808FA02F4234007
:10064000A3426ED14D68022D01D0122D0ED1D508D6
:1006500000EB850CDCF820505607F70E09FA07F678
:10066000B5430E69BE402E43CCF8206006685500A5
:100670000F790AFA05FC07F0030726EA0C06AF40DB
:10068000374307604E68012E05D0022E03D0112E8D
:1006900001D0122E0ED18668CF6826EA0C06AF4034
:1006A000374387604668A6430C79C4F3001494402E
:1006B00034434460C6688C6826EA0C06AC40344378
:1006C000C4604C68E40065D5364C256845F4804527
:1006D0002560246822F0030504F480440094324C21
:1006E0002E19D6F8084895072F0F09FA07F5AC43DD
:1006F0002E4DA84201D1002524E02D4DA84201D164
:1007000001251FE02B4DA84201D102251AE02A4DF8
:10071000A84201D1032515E0284DA84202D10425A5
:1007200010E037E0264DA84201D105250AE0254D0D
:10073000A84201D1062505E0234DA84201D1072595
:1007400000E00825BD402543C6F80858DBF8004006
:100750005D464E689C43F60300D51C432C60DEF8D2
:10076000004075464E689C43B60300D51C432C6080
:100770000B4D08352C684E689C43F60200D51C438F
:100780002C60074D0C352C684E689C43B60200D592
:100790001C432C60521C102AFFF44EAFBDE8F88FAA
:1007A000003C01404438024000300140000002405B
:1007B0000004024000080240000C02400010024009
:1007C0000014024000180240001C02400AB181617E
:1007D00070470904FBE7000001488068704700008B
:1007E00050000020024881680278114481607047FF
:1007F000500000200B4810B5016841F40071016001
:10080000016841F480610160016841F48071016018
:10081000032000F097F8002000F006F800F024F81C
:10082000002010BD003C024070B50D4D04464FF451
:100830007A712878B1FBF0F00A490968B1FBF0F051
:1008400001F0F3F848B9102C07D200222146501EBF
:1008500000F058F800206C6070BD012070BD0000F1
:10086000500000205C0000201F4808B5016841F4DA
:1008700080410160006800F4804000901A48001F29
:10088000016841F080510160006800F080500090E4
:10089000072000F057F8002211466FF00B0000F01F
:1008A00031F8002211466FF00A0000F02BF8002208
:1008B00011466FF0090000F025F800221146501F84
:1008C00000F020F800221146101F00F01BF8002253
:1008D0001146901E00F016F80022BDE808401146AF
:1008E000501E00F00FB800004438024000F01F0214
:1008F000012191404009800000F1E020C0F8001182
:1009000070470000F0B40E4B1B680C46C3F3022383
:10091000C3F10705042D00D90425191D072901D2AB
:10092000002300E0DB1E012606FA05F1491E2140E6
:1009300099409E40761E16403143F0BC01F02AB922
:100940000CED00E0064900F0070208684FF6FF03CF
:10095000184040EA0220034A104308607047000034
:100960000CED00E00000FA050068416200207047CD
:10097000F0B500680023446A31B1856A4FF482768D
:1009800004EB15444D1E0AE044EA024181620FE087
:1009900006EB8307C7595B1C04EB1744DBB2AB4281
:1009A000F6DB4FF4807303EB810144EA02424250CC
:1009B0000020F0BDD0F8EC0301F072BDC1EBC10224
:1009C00000EB8202D0F8EC03526C01F0DFBCC1EB0B
:1009D000C10200EB8202D0F8EC03D2F8042201F04D
:1009E0002ABDD0F8EC0301F05DBD10B504460A46FF
:1009F0000B0601F07F00C0EBC00104EB810101D5C3
:100A0000383101E001F5FC710870D009487094F8A4
:100A1000B803012809D0012084F8B803206802F047
:100A200083F8002084F8B80310BD022010BD70B513
:100A30000A460446090602F07F0005D5C0EBC00156
:100A400004EB8101383105E0C2EBC20104EB810106
:100A500001F5FC7100258D700870D009487094F87C
:100A6000B803012809D0012084F8B803206802F0F7
:100A70003CFA84F8B853002070BD022070BD01F02C
:100A80000F01C1EBC10100EB8100B0F8100280B290
:100A9000704770B504460D460E0601F07F00C0EBAE
:100AA000C00104EB810101D5383101E001F5FC7191
:100AB000ED0908704D708A60CB7000D0C8800025A9
:100AC000022B00D10D7194F8B803012809D0012040
:100AD00084F8B803206801F07BFF284684F8B853F7
:100AE00070BD022070BD70B50C4601F07F05C5EBEE
:100AF000C50100EB8101C1F80C32C1F804220023CA
:100B0000C1F8103281F8F93181F8F851036901F523
:100B1000FC71012B00D10A616206027C006803D0DF
:100B200002F044FA002070BD02F020F9FAE770B537
:100B30000D460446090605F07F0005D5C0EBC0014F
:100B400004EB8101383105E0C5EBC50104EB8101FF
:100B500001F5FC7101228A700870E809487094F868
:100B6000B803012807D084F8B823206802F0EFF911
:100B7000680602D007E0022070BD217C04F56F7288
:100B8000206802F093F9002084F8B80370BD70B5B6
:100B90000C4601F07F05C5EBC50100EB8101CB647C
:100BA0004A6400230B65012381F8393001F8385F6E
:100BB0000369012B00D10A616206027C006803D040
:100BC00002F0F4F9002070BD02F0D0F8FAE700005E
:100BD0002DE9F84F044600680026054602F03AFB6E
:100BE000002875D1206802F05EFB002870D02068D4
:100BF00002F059FB800704D52068416901F0020129
:100C00004161206802F04FFB010304F56F704FF063
:100C1000010B4FF0000A00904DD5206802F025FB33
:100C2000074646E0F80742D0F1B2206802F033FBF5
:100C30008046C00728D005EB4612C2F808BB2069E1
:100C4000012811D1C6EBC60004EB8001D2F8102BAD
:100C5000D1F80002C2F31202821AC1F81022D1F8B0
:100C600004221044C1F80402F1B22046FFF7AFFE9F
:100C70002069012808D13EB9D4F80C0220B92068B7
:100C80000121009A02F012F95FEA087007D52046A8
:100C900000F0DCFA05EB46110820C1F8080B5FEA0A
:100CA000C86004D505EB46111020C1F8080B7F0879
:100CB000761C002FB6D1206802F0F5FA40034FF001
:100CC00040095ED5206802F0C9FA0746002656E0C2
:100CD000D2E1F80751D0F1B2206802F0CDFA804697
:100CE000C00724D0D5F834280BFA06F08243C5F8A3
:100CF000342805EB4610C0F808B92069012807D14F
:100D0000C6EBC60004EB8000D0E910121144416428
:100D1000F1B22046FFF752FE2069012807D136B90B
:100D2000E06C20B920680121009A02F0BFF85FEA68
:100D3000087004D505EB46110820C1F808095FEAE0
:100D4000C86004D505EB46111020C1F808095FEA18
:100D5000486003D505EB4611C1F808995FEA887031
:100D600004D505EB46110220C1F808095FEA0860C6
:100D700003D53146204600F023FF7F08761C002F64
:100D8000A7D1206802F08FFA00280DDAD5F8040800
:100D900020F00100C5F80408204600F03DFA216863
:100DA000486900F000404861206802F07CFA0005C4
:100DB0000BD5D5F80808C00702D0204600F062FA2B
:100DC0002068416901F400614161206802F06BFA1A
:100DD000C0044CD5D5F8040820F00100C5F804087B
:100DE0001021206802F006FA0020FF2107E000BF72
:100DF00005EB4012C2F80819C2F8081B401C6268D3
:100E00008242F5D84FF0FF30C5F81808D5F81C0815
:100E100040F00110C5F81C08206B60B1D5F88408BB
:100E200040F00B00C5F88408D5F8440840F00B00EA
:100E3000C5F844080BE0D5F8140840F00B00C5F8DD
:100E40001408D5F8100840F00B00C5F81008D5F8C4
:100E5000000820F4FE60C5F80008217C2068009A94
:100E600002F024F82168486900F480504861206845
:100E700002F019FA80047DD5206801F0E9FD2068B0
:100E8000C16821F47051C160206802F0C5F978B1E1
:100E90000320C4F81490E06000F0A4FA7749784A7F
:100EA000014491420AD22068C16841F4705158E06F
:100EB0004FF40070C4F80CA0606136E07149724ACA
:100EC0000144914204D22068C16841F4605148E075
:100ED0006E496F4A0144914204D22068C16841F4CE
:100EE00050513EE06B496C4A0144914204D2206863
:100EF000C16841F4405134E06849694A0144914273
:100F000004D22068C16841F430512AE06549664A3C
:100F10000144914204D22068C16841F4205120E08C
:100F20006249421862498A4204D22068C16841F489
:100F3000105116E05F49604A0144914204D2206892
:100F4000C16841F400510CE05C4908445C498842A6
:100F50002068C16803D241F4E05102E00AE041F4A4
:100F6000C051C160204600F047F92068416901F492
:100F700000514161206802F096F9C00636D521681B
:100F8000886920F010008861D5F8208008F00F00F3
:100F9000C0EBC00004EB8007C8F3434007F5FC77C3
:100FA000022802D0062812D01BE047F6F07018EA9B
:100FB000000F16D0C8F30A1290462846F96802F0CE
:100FC00076F9F8684044F860B869404408E00822BF
:100FD0002846009902F06BF9B969C8F30A10084471
:100FE000B8612068816941F010018161206802F0D8
:100FF0005AF9000707D5204600F012F92068416928
:1010000001F008014161206802F04DF9C00208D5E5
:10101000F1B2204600F056F82068416901F48011D1
:101020004161206802F03FF9800208D5F1B2204604
:1010300000F04CF82068416901F40011416120681A
:1010400002F031F9400007D52046FFF7B3FC2068D5
:10105000416901F080414161206802F024F94007B4
:101060000AD520684568680702D52046FFF7B9FC15
:101070002068416829434160BDE8F88F405327FF4D
:1010800000350C00401E1BFF40420F0000DC0BFF30
:10109000804F1200808CF9FE20D6130060B6E5FE6A
:1010A00060E3160000D3CEFE40771B00C05BB3FEAA
:1010B000C091210000CA91FE20753800E05459FE0D
:1010C000E09C4100D0F8EC0301F04ABAD0F8EC0300
:1010D00001F048BAF0B58BB004004FF0000556D0CF
:1010E000032084F8B903204600F054F8206801F08A
:1010F00037FE04F1100128220F466846FFF791F8E9
:1011000094E80F0001F0BEFC0021206802F0DFF837
:1011100001260020C5EBC50104EB810181F839608F
:1011200001F8385FCD80C8708860C8606D1C486168
:101130000F2DEFD300214FF4827300BFC1EBC1022A
:1011400004EB820203EB810582F8F90182F8F811C1
:10115000D18782F8FB01C2F80002C2F80402C2F88B
:101160000C0222685051491C0F29E7D32822394626
:101170006846FFF756F894E80F0001F051FD84F837
:10118000B963206801F040FD00200BB0F0BD0120E4
:10119000FBE7000000B5006887B0B0F1A04F25D193
:1011A0004FF4C050009002200190002002900320D4
:1011B00003900A20049069460D48FFF72FFA0D4866
:1011C000016841F0800101600A481030016841F473
:1011D000804101600068002200F4804005901146C3
:1011E0004320FFF78FFB4320FFF780FB07B000BDD4
:1011F000000002403438024010B50446C0680121A6
:1012000000B90021D4F8EC0301F002FAD4F8EC03A1
:10121000BDE8104001F0CBB9D0F8EC0301F0E6B91D
:10122000D0F8EC0301F0E8B910B5044690F8B80323
:10123000012809D0012084F8B803206802F05DF885
:10124000002084F8B80310BD022010BDD0F8EC23B4
:1012500000F56F71104601F0EEB910B5044690F834
:10126000B80301280CD0012084F8B803206801F0ED
:10127000BFFC206801F0A8FF002084F8B80310BD6F
:10128000022010BD10B50446D0F8EC0301F020FA9E
:101290002068D0F8001E41F00101C0F8001E206A4D
:1012A000002804D00248016841F00601016010BD29
:1012B00010ED00E02DE9F0470E46050065D0DFF89F
:1012C0001481D8F80000F7B200F00F00B04207D246
:1012D00088F80070D8F8000000F00F00B04254D138
:1012E00028683D4C810712D5400703D5206840F49B
:1012F000E05020602878000703D5206840F4604063
:1013000020602068A96820F0F00008432060287859
:10131000C0072DD0304968680839012812D002284A
:1013200013D0032811D00968890700292DDA216814
:1013300021F0030101432160FFF74EFA814641F29B
:10134000883A0EE009688903EFE709688901ECE74C
:10135000FFF742FAA0EB0901514502D90320BDE88D
:10136000F0872068696800F00C00B0EB810FEFD1C6
:10137000D8F80010404601F00F01B14207D90770BC
:10138000006800F00F00B04201D00120E7E72878A4
:10139000400705D52068E96820F4E0500843206044
:1013A0002878000706D52068296920F4604040EAC3
:1013B000C100206000F01CF82168084AC1F3031145
:1013C000515CC840064908600020FFF72DFA002054
:1013D000C5E70000003C02400838024075340008B0
:1013E0005C00002001480068704700005C0000209D
:1013F000154810B5006810F00C02144813D04110C5
:10140000042A0FD0082A0ED10F4C241F226823680B
:1014100002F03F025B0207D52068C0F38810A0FBF2
:10142000010106E0084610BD2168C1F38811A1FB47
:1014300000010023FEF7C4FE2168C1F30141491CED
:101440004900B0FBF1F010BD083802400024F40060
:101450002DE9F84F050076D02878DFF8F8B2BE4CB9
:10146000C00749D0DBF800105846C1F381010129BB
:1014700008D00068C0F3810002280AD1201D00684E
:10148000400206D52068800336D568680028E2D07F
:1014900032E06868B0F5803F10D0B0F5A02F20682A
:1014A00010D020F480302060206820F4802020605C
:1014B0006868A0B1FFF790F906460CE0206840F498
:1014C0008030F4E740F480202060F7E7FFF784F9EC
:1014D000801B642873D820688003F7D50CE0FFF7E1
:1014E0007BF9064605E000BFFFF776F9801B64280C
:1014F000F0D820688003F7D42878DFF8608280076E
:101500004FF000093ED5DBF80010584611F00C0FE3
:1015100009D00068C0F3810002280BD18D48001F5C
:101520000068400206D42068800715D5E8680128C5
:1015300009D111E0E868B8B10120C8F80000FFF750
:101540004BF9064605E002E1FFF746F9801B022849
:10155000C0D820688007F7D52068296920F0F800F6
:1015600040EAC10020600DE0C8F80090FFF734F9B0
:10157000064604E0FFF730F9801B02281FD82068D8
:101580008007F7D42878000722D5724E744869691D
:101590006C3671B101210160FFF71EF9074604E0C6
:1015A000FFF71AF9C01B022809D830688007F7D561
:1015B0000EE0C0F80090FFF70FF9074605E083E062
:1015C000FFF70AF9C01B02287ED830688007F7D4DD
:1015D0002878400768D5DFF87CA100270AF1380A8F
:1015E000DAF80000C0000BD4DAF8001041F08051A6
:1015F000CAF80010DAF80000012700F080500090CF
:10160000584E3068C00510D4306840F480703060A7
:10161000FFF7E2F8009005E0FFF7DEF80099401AC6
:10162000022851D83068C005F6D54A4EA8686836F9
:1016300001280FD00528306810D020F0010030605C
:10164000306820F004003060A868B8B1FFF7C4F833
:1016500000900FE0306840F00100F4E740F0040033
:101660003060F7E7FFF7B8F80099411A41F2883087
:10167000814264D830688007F4D50EE0FFF7ACF8FB
:10168000009007E0FFF7A8F80099411A41F288306E
:10169000814254D830688007F4D42FB1DAF80010B2
:1016A00021F08051CAF80010A869C0B3DBF800101F
:1016B000C1F3810102294AD00228484607D0C8F860
:1016C0006000FFF789F800E039E005463AE0474658
:1016D000C8F86000FFF780F8064604E0FFF77CF8E2
:1016E000801B02282BD820688001F7D4D5E9070198
:1016F0000843A96A1C4A490802EB01416A6A41EAA7
:101700008211084395F82C1040EA01611148001F2E
:10171000016001203866FFF75FF8054605E014E038
:10172000FFF75AF8401B022809D820688001F7D536
:101730000BE000BFFFF750F8401B022802D903203E
:10174000BDE8F88F20688001F4D40020F8E701207C
:10175000F6E7000008380240003802400000474227
:10176000800E4742007000400000FFFF70B504008B
:1017700005D00025A56294F8510010B106E00120C3
:1017800070BD84F85050204600F030F8022084F8F4
:1017900051002068016821F040010160D4E9010195
:1017A0000843D4E903121143084361690843218BBC
:1017B00001F400710843E1690843216A0843A16A02
:1017C000084321680860A069042101EA1040616AA9
:1017D0000843216848602068C16921F40061C16143
:1017E0006565012084F85100002070BD00B50068D7
:1017F0000E4987B0884216D10D480021026842F494
:1018000080520260006800F480500590E020009053
:101810000220CDE9010103200390052004906946D0
:101820000448FEF7FBFE07B000BD00000030014099
:1018300044380240000002402DE9F84F044690F879
:10184000500000260A9F9A4693460D464FF0010825
:1018500001280ED0012084F85000FEF7BDFF81461C
:1018600094F85100616801280CD0B1F5827F07D14E
:1018700002E00220BDE8F88FA16809B9042801D070
:101880000226BDE055B1BBF1000F07D0BAF1000F41
:1018900004D094F85100012802D004E00126AFE002
:1018A000052084F8510000206065C4F838B0A4F821
:1018B0003EA0A4F83CA02563A4F836A0A4F834A068
:1018C0002064606420680168490603D4016841F01F
:1018D00040010160E068B0F5006F606804D0E8B3D3
:1018E000E08E01283BD06AE010B1E08E01282ED1B5
:1018F000216835F8020BC860E08E401EE08626E0C5
:10190000B8F1000F0DD0E08E58B1206881688907CA
:1019100007D535F8021BC160E08E401EE0864FF00F
:101920000008E08F58B120688168C90707D0C068F7
:101930002BF8020BE08F401EE0874FF00108781C67
:1019400005D0FEF749FFA0EB0900B84246D2E08E71
:101950000028D5D1E08F0028D2D136E0FFE72168FA
:1019600015F8010B0873E08E401EE08627E000BFEB
:10197000B8F1000F0DD0E08E58B12068816889075A
:1019800007D515F8011B0173E08E401EE0864FF06D
:101990000008E08F58B120688168C90707D0C06887
:1019A0000BF8010BE08F401EE0874FF00108781C18
:1019B00005D0FEF711FFA0EB0900B8420ED2E08E71
:1019C0000028D5D1E08F0028D2D13B460122022148
:1019D0002046CDF8009000F048F908B103260FE04A
:1019E0004A463946204600F030F918B10126202039
:1019F000606505E0A06818B92068C168806800903B
:101A0000012084F85100002084F85000304631E76E
:101A10004FF0E0210428086903D020F00400086199
:101A2000704740F00400FAE7704710B5401EB0F16F
:101A3000807F01D3012010BD4FF0E02460610F21B1
:101A4000601700F0A7F80020A061072020610020A7
:101A500010BD10B5FFF7E8FF10BD00002DE9F04103
:101A60002B4886B00024016841F010010160016834
:101A700001F010010591016841F004010160016865
:101A800001F004010591016841F0800101600168E5
:101A900001F080010591016841F0010101600168D8
:101AA00001F001010591016841F008010160006841
:101AB000DFF8608000F00800059000220B2140460E
:101AC000FEF784FE144F4FF470460022314638462C
:101AD000FEF77CFE092000900125CDE901546946FE
:101AE00040460394FEF79AFD0096CDE901546946FD
:101AF00038460394FEF792FD0220CDE900056946C1
:101B00004046CDE90245FEF789FD06B0BDE8F0810B
:101B10003038024000100240000C02400E4810B560
:101B20000C4901604FF48271416000218160C16005
:101B30004FF400720161C0E905121822C0E90721C3
:101B4000416281620A21C162FFF710FE002800D0C5
:101B5000FEE710BD003001408001002010B50022DA
:101B60000849094800F0DDFB0849074800F0DDFDA1
:101B70000749054800F01EFABDE81040024800F091
:101B800021BE000004000020D801002040010020F8
:101B9000380000200907090E002806DA00F00F00BF
:101BA00000F1E02080F8141D704700F1E02080F87B
:101BB000001470470148FFF70BB80000FC03002039
:101BC0002DE9F84F0F46C1EBC70100EB81058246B6
:101BD0000668D5E91301441A286C3835A04200D2B2
:101BE0000446E01C4FEA900806EB471916E0441A39
:101BF000A868A04200D20446E01C4FEA90089AF878
:101C000010000090A3B2FAB23046E96801F086FBFA
:101C1000E8682044E860A8692044A861D9F8180958
:101C200080B2404505D9D5E90501814201D200289D
:101C3000DDD134B90120D6F83418B8408143C6F854
:101C400034180020BDE8F88F704738B50B46009275
:101C500004460022802100F008F8002804D0606DBE
:101C600040F020006065032038BD2DE9F0411D469D
:101C700017460E460446DDF8188035E0681C33D060
:101C80002DB1FEF7A9FDA0EB0800A8422CD32068D7
:101C9000416821F0E00141606068B0F5827F0BD1BE
:101CA000A068B0F5004F02D0B0F5806F04D1206875
:101CB000016821F040010160A06AB0F5005F0AD11F
:101CC000206801684DF6FF721140016020680168CC
:101CD00041F400510160012084F85100002084F893
:101CE00050000320BDE8F0812068806836EA0000DB
:101CF00004D00020B842C1D10020F3E70120F9E769
:101D000001B582B000208DF804004FF4805000909F
:101D1000012301AA02A90448FFF78EFD08B1FEF7CE
:101D200063FC9DF804000EBD80010020704710B5D3
:101D3000FEF758FDBDE81040FFF78BBE30B52548D3
:101D400093B00025016841F080510160006800F007
:101D5000805011902048016841F480410160006882
:101D6000022400F4804011900120009000040190B2
:101D70008001CDE9064004200890A820CDE909049F
:101D800007200B906846FFF763FB00B1FEE70CA944
:101D90000F2081E831004FF4A0500F904FF4805095
:101DA000109005210CA8FFF785FA00B1FEE7FFF7B8
:101DB00019FB4FF47A71B0FBF1F0FFF736FE042007
:101DC000FFF726FE00221146501EFEF79BFD13B0C2
:101DD00030BD0000403802400070004010480168EB
:101DE00041F4700101600F48016841F00101016098
:101DF0000C4A00210832116002680B4B1A40026045
:101E0000031D0A4A1A60026822F480220260054813
:101E10000C300160024958068039086070470000A4
:101E200088ED00E000380240FFFFF6FE103000248D
:101E3000D0F8180220B10021C0F8141208467047EB
:101E40000220704770B50546D0F8184200F035FB07
:101E5000C4F80C02D5F8180248B1D5F81C12D4F811
:101E60000402CA6804F503719047002070BD022087
:101E700070BD70B504460025812100F077FA01217C
:101E8000204600F073FA8221204600F06FFAD4F861
:101E9000180250B1D4F81C0204F50674406880475B
:101EA000206801F05FFA00202060284670BD10B560
:101EB000D0E9864159B194F80002FF2807D08B6819
:101EC00094F8012221469847FF2084F80002002060
:101ED00010BD00000A210180004870476800002002
:101EE0004321018000487047B80000204321018051
:101EF000004870477400002043210180004870476B
:101F0000FC0000202DE9F0410446007C00254FF440
:101F1000007670B3402302228121204600F024FB8A
:101F2000402302220121204600F01EFB0823032249
:101F30008221204600F018FB4FF4077001F05AFA96
:101F4000C4F81802F0B10746D4F81C0200688047B4
:101F50000020C7F81402C7F81802207CD7F8042222
:101F600090B140230121204600F011FB2846BDE836
:101F7000F081FFE7334602228121204600F0F4FA87
:101F80003346CEE70125F1E73346EBE710B5D0F84D
:101F9000181269B1027C002AD1F8042205D040232E
:101FA000012100F0F4FA002010BD4FF40073F7E7B0
:101FB000022010BD02460220002902D00020C2F8F3
:101FC0001C127047D0F81802C0F8041200207047A5
:101FD000D0F81802C0F81022C0F80812002070478C
:101FE00070B50646D0F8185208780C4610F060011B
:101FF00021D0202927D1E288AAB10006607807D530
:10200000D6F81C128B6829469847E288294617E0C3
:1020100085F80002A07985F80102E2882946304659
:1020200000F050F80FE0D6F81C12607800228B68A0
:102030002146984707E060780A2804D10349012225
:10204000304600F059F8002070BD00006400002008
:1020500010B5D0F8181289B1D1F814220AB10120B4
:1020600010BD0122C1F81422B1F8102293B2D1F8A8
:102070000822812100F035FB002010BD022010BD98
:1020800010B5D0F8142252689047002010BD1346B6
:1020900010B50A46002100F07AFA002010BD134660
:1020A00010B50A46002100F01CFB002010BD10B541
:1020B0000446802100F0ECFA2046BDE810400021E3
:1020C00000F0E6BA10B50323C0F80821C0F8F431D7
:1020D000C0F80C2113460A46002100F058FA0020EF
:1020E00010BD10B505210023C0F8F4111A46194699
:1020F00000F04DFA002010BD10B502238261C0F837
:10210000F431C26113460A46002100F0EAFA0020C9
:1021100010BD10B504210023C0F8F4111A46194669
:1021200000F0DFFA002010BD10B50A46024903A0F6
:1021300000F0D4F8004810BDEC07002043444320D1
:10214000436F6E6669670000122008800048704780
:102150002400002010B50A46024903A000F0BEF892
:10216000004810BDEC07002043444320496E7465CD
:1021700072666163650000000420088000487047B3
:102180002000002010B50A46024903A000F0A6F87E
:10219000004810BDEC07002053544D6963726F6511
:1021A0006C656374726F6E696373000010B50A46E4
:1021B000024903A000F092F8004810BDEC0700208F
:1021C00053544D3332205669727475616C20436FDD
:1021D0006D506F727400000010B50A46024903A0EA
:1021E00000F07CF8004810BDEC07002030303030A3
:1021F000303030303030314100000000F8B5044656
:1022000048880D46010A08294BD2DFE801F04A044C
:1022100009174A4A4048D4F81012207C0A6832E074
:10222000207C02260028D4F8140205D0C16A684632
:1022300088470146467041E0816AF8E7C0B2062847
:102240002FD2DFE800F003080D12171CD4F810128B
:10225000207C4A6817E0D4F81012207C8A6812E0CB
:10226000D4F81012207CCA680DE0D4F81012207C3B
:102270000A6908E0D4F81012207C4A6903E0D4F817
:102280001012207C8A6969469047014616E0207C3E
:1022900038B9D4F81402416B68468847F5E7207CCA
:1022A00020B129462046FFF702FFF8BDD4F81402FA
:1022B000016B68468847014607204870BDF800005A
:1022C0000028F2D0EA88002AEFD0824200D90246E4
:1022D000ADF800202046FFF70FFFF8BD70B50023D2
:1022E00000281DD00446002502E06D1CEDB2641CE0
:1022F0002678002EF9D1022404EB45041480CC5436
:102300005B1C0322CA5400245B1C06E0CA545B1CFD
:10231000DAB28C54521CD3B2401C0278002AF5D198
:1023200070BD10B580B1D0F8143213B10023C0F8DD
:10233000143209B1C0F81012012180F8FC110270AA
:1023400000F0C0F8002010BD022010BD10B5002420
:10235000D0F82002FEF76BFB30B1012801D0022833
:1023600001D0022400E00124204610BD10B5002455
:10237000D0F82002FEF739FB30B1012801D0022845
:1023800001D0022400E00124204610BD2DE9F041D7
:102390001746044641B1D4F8140242698AB394F84E
:1023A000FC01032842D043E0D4F8F411002504F1E5
:1023B0001400022933D1D0E902639E4207D9F31AEF
:1023C00083609AB239462046FFF769FE12E0406802
:1023D000B0FBF3F103FB1101A1B9984212D3D4F879
:1023E000F81188420ED2002211462046FFF757FE10
:1023F000C4F8F85100231A461946204600F0C7F8E1
:102400000DE012E0D4F81402C16829B194F8FC017F
:10241000032801D1204688472046FFF762FE94F842
:102420000002012804D184F8005201E020469047C0
:102430000020BDE8F08170B51546044641B1D4F8DE
:10244000140282693AB394F8FC01032824D025E0F1
:10245000D4F8F41104F5827003291FD1D0E90221C8
:102460008A420BD9531A83600846834200D303463D
:102470009AB229462046FFF70AFE0FE0D4F814026C
:10248000016929B194F8FC01032801D1204688474D
:102490002046FFF73EFE01E020469047002070BD39
:1024A0000020704710B5012180F8FC11D0F81422EB
:1024B000017952689047002010BDD0F82002FEF745
:1024C000DEBA000010B5017859BB17490222C1F8E5
:1024D000EC03C0F820124FF0A040086004204860D0
:1024E0000020C1E90320C1E90502C8610862486211
:1024F000C86208630846FEF7EDFD20B14FF4A571F0
:102500000AA000F01FFF80210748FEF72DFA4022A5
:1025100000210548FEF72CFA802201210248FEF72F
:1025200027FA002010BD0000FC0300202E2E2F53A0
:1025300072632F757362645F636F6E662E63000053
:102540000A0601F07F01D0F82002C1EBC10100EBC7
:10255000810002D590F83A00704790F8FA01704770
:10256000002070470020704770B51D4613460024B8
:10257000D0F820022A46FEF78CFA30B1012801D0AB
:10258000022801D0022400E00124204670BD10B5CD
:102590000024D0F82002FEF7A6FA30B1012801D0BD
:1025A000022801D0022400E00124204610BD70B5AD
:1025B0000022044640231146FFF7D6FF40252B4654
:1025C000002280212046C4F81051FFF7CDFF0120E2
:1025D000256284F8FC01D4F8180228B1D4F814025A
:1025E0002179426820469047002070BD90F8FD1187
:1025F00080F8FC110020704710B590F8FC110329F9
:1026000004D1D0F81412C96901B18847002010BD67
:1026100001740020704710B50024D0F82002FEF7A6
:1026200003FE30B1012801D0022801D0022400E0CD
:102630000124204610BD70B5044600F50270054621
:1026400000F05FF80120C4F8F401B4F80E02C4F8F9
:10265000F80194F8080210F01F010AD001290DD0EA
:10266000022910D000F08001204600F011F800206F
:1026700070BD2946204600F0AAF8F8E72946204612
:1026800000F08CF9F3E72946204600F019F9EEE74F
:1026900010B50024D0F82002FEF749FA30B1012825
:1026A00001D0022801D0022400E00124204610BD00
:1026B00010B50024D0F82002FEF7CFFD30B101287C
:1026C00001D0022801D0022400E00124204610BDE0
:1026D00090F8FC1180F8FD11042180F8FC11002015
:1026E000704710B50024D0F82002FEF750FA30B140
:1026F000012801D0022801D0022400E00124204654
:1027000010BD0A7802704A7842708A78CB7802EB62
:10271000032242800A794B7902EB032282808A7974
:10272000C97902EB0121C18070470246002011B136
:10273000C2F8141270470220704710B5D0F8142266
:1027400002241AB11268904700B90024204610BD37
:1027500070B50E461A4D897804462970012928D88B
:1027600094F8FC01022802D0032822D105E099B197
:102770000320616084F8FC0109E091B1606888423F
:102780000AD0C1B22046FFF77BFC29786160204661
:10279000FFF7D3FF02280CD02046BDE87040FFF7BA
:1027A000B8BC022084F8FC0120466160FFF768FC99
:1027B000F2E731462046BDE87040FFF778BC0000E4
:1027C0006000002010B5FFF773FF002010BD2DE959
:1027D000F04100264B78012532460A2B43D2DFE830
:1027E00003F03C584251420805422A27FFF706FDF4
:1027F00063E004468888C8B9C888B8B9887800F00A
:102800007F0794F8FC01032810D084F8FE71394644
:102810002046FFF700FF2046FFF77BFC1FB1022098
:1028200084F8FC0149E084F8FC5146E020461AE0B7
:10283000FFF78EFF41E0CB88012B14D190F8FC31DB
:10284000022B02D0032B0ED104E08260012200F1A2
:10285000080114E00122011D11E090F8FC21022A78
:1028600004D0032A02D0FFF722FC26E0C560D0F88E
:10287000041209B10321C160022200F10C01FFF72B
:102880003BFC1AE004464888012816D1C4F80452DB
:102890000BE0044690F8FC01022801D00328C5D1C2
:1028A0004888012809D1C4F80422D4F814028268A7
:1028B000204690472046FFF72CFC3046BDE8F081CB
:1028C00070B50D460446287800260979C0F34110FA
:1028D000012806D06878A0B301281FD003283FD173
:1028E00007E0D4F814022946826820469047002069
:1028F00070BD94F8FC01022817D003282CD16888F9
:1029000028B921B1802902D02046FFF7C1FED4F8B2
:102910001402294682682046904713E094F8FC018F
:10292000022802D0032817D103E0C9B180291BD1A6
:1029300016E06888A0B9480604D02046FFF706FDD7
:10294000E5E703E02046FFF7E4FB09E094F8FC012B
:10295000022807D003280BD029462046FFF7A7FB03
:10296000304670BD4806FBD02046FFF791FEF7E7E2
:10297000080601F07F0004EB001501D5143501E0D5
:1029800005F582752046FFF7DBFD00B101202860C8
:10299000022229462046FFF7AFFBE1E770B5054666
:1029A00090F8FC010C4603280DD1207901280AD8A3
:1029B000D5F81402826828469047E08830B9284646
:1029C000FFF7A7FB02E02846FFF771FB002070BD70
:1029D00030B54C781D4B01220D78AA40012CD0F85F
:1029E0001C4818D044EA0242C0F81C280A7800EBC0
:1029F0004210D0F8002B12040BD4D0F8002B0C8915
:102A0000C4F30A042243C97843EA81410A43C0F867
:102A1000002B002030BD92B21443C0F81C480C7843
:102A200000EB4410D0F800291204F2D4D0F80029A9
:102A30000D89C5F30A052A43C978890441EA8451FE
:102A40000A431A43C0F80029E3E7000000800010A1
:102A5000D0F800196FF30A01C0F80019D0F808186F
:102A6000C1F34101022905D1D0F8001941F0030159
:102A7000C0F80019D0F8041841F48071C0F80418A7
:102A80000020704770B50446049D06990D980129F1
:102A90000CD0E06840F04000E060204600F028F8EC
:102AA0004FF48030A063012D16D01DE0A16B21F4FE
:102AB0008031A163E1680D4A1140E160E16821F4D1
:102AC0004011E160012803D1E06840F48010E0602B
:102AD000204600F00DF8E6E7A06840F00600A06090
:102AE000A06840F02000A060002070BDBFFFBDFFC7
:102AF00001220C4902E0521C8A420BD80369002BC8
:102B0000F9DA026942F001020261012204E0521C7A
:102B10008A4201D9032070470369DB07F7D10020FF
:102B200070470000400D0300F0B50D4604464F7895
:102B30000126F206D3002D49287804EB4010012F1E
:102B400014D0D0F8007B27F40047C0F8007B287829
:102B500004EB4010C0F8002B287804EB4010C0F8BC
:102B6000003B01202A7804EB42122BE0D0F80079D8
:102B700027F40047C0F80079287804EB4010C0F82B
:102B80000029287804EB4010C0F8003901202A7889
:102B900004EB421202E0401C884211D8D2F80839F6
:102BA0005B00F8D41021204600F024FBD4F81C0868
:102BB00029788E40B1B2884314E0401C884201D984
:102BC0000320F0BDD2F8083BDB06F6D4D4F80408A5
:102BD00040F48060C4F80408D4F81C0829788E40BA
:102BE00020EA0640C4F81C080020F0BD400D030098
:102BF00010B5D0F8041821F00201C0F80418032021
:102C0000FDF7FAFC002010BD10B5D0F8041841F013
:102C10000201C0F804180320FDF7EEFC002010BDEF
:102C20002DE9F0470E460446DDE90A0A0025DDF8E5
:102C30003C80089F5FEA0801A16B11D041F400219C
:102C4000A1634FF00009C4F8009ED4F80018C4F83E
:102C50000018012807D0D4F8000840F0030007E06E
:102C600041F40011ECE7D4F800080BB140F001008A
:102C7000C4F800081021204600F0BCFA204600F0FD
:102C8000A9FA4846C4F81098C4F814984FF0FF31D8
:102C9000C4F81818C4F81C984FF0904CFF230FE0AC
:102CA00004EB4511D1F80029002A02DAC1F800C965
:102CB00001E0C1F80009C1F81009C1F808396D1C1C
:102CC000AE42EDD800210FE004EB4112D2F8005BD8
:102CD000002D02DAC2F800CB01E0C2F8000BC2F806
:102CE000100BC2F8083B491C8E42EDD8D4F81018DE
:102CF00021F48071C4F81018012F0AD11449C4F8C6
:102D00003018D4F83018134A1143C4F83018D4F8E6
:102D10003018A0616FF0804060611FB9A06940F079
:102D20001000A061A0690C490843A061BAF1000F2E
:102D300003D0A06940F00800A061B8F1010F03D1F1
:102D4000A06906490843A0610020BDE8F0870000A3
:102D5000000180000300010000383C8004000040B6
:102D6000816821F0010181600020704730B54D7805
:102D70004D4C0B7800EB4313012D28D0D3F8105B9A
:102D80006FF31205C3F8105B0B7800EB4313D3F815
:102D9000105B2540C3F8105B4B690BB18B684B612E
:102DA0000B7800EB4313D3F8104B44F40024C3F822
:102DB000104B0B7800EB4313D3F8104B8D68C5F321
:102DC00012052C43C3F8104B012A5CD061E04D6919
:102DD000002DD3F810593BD06FF31205C3F81059EA
:102DE0000B7800EB4313D3F810592540C3F8105962
:102DF0004C698B689C4200D94B610B7800EB431304
:102E0000D3F8104944F40024C3F810490B7800EBC0
:102E10004313D3F810494D69C5F3120554EA05046C
:102E2000C3F810490B7800EB4313D3F8004944F082
:102E30000444C3F80049012A1ED04A6912B3D0F8ED
:102E400034280B78012199400A43C0F8342829E03E
:102E50002540C3F810590B7800EB4313D3F8104901
:102E600044F40024C3F810490B7800EB4313D3F863
:102E700010496FF31204D3E70A69097800EB411097
:102E8000C0F814290EE00B7800EB4313CA68C3F8AE
:102E9000142B097800EB4110D0F8001B41F00441DD
:102EA000C0F8001B002030BDFFFF07E00023C0F882
:102EB000103BD0F8103B43F40023C0F8103BD0F88F
:102EC000103B43F01803C0F8103BD0F8103B43F020
:102ED000C043C0F8103B012905D1C0F8142B4FF0B6
:102EE0008021C0F8001B002070474B780A7800EB67
:102EF0004212012B0BD0D2F8003B23F40013C2F88E
:102F0000003BCA78032A17D0022A15D01DE0D2F858
:102F1000003923F40013C2F80039CA78032A01D01B
:102F2000022A12D1097800EB4110D0F8001941F0C3
:102F30008051C0F8001908E0097800EB4110D0F882
:102F4000001B41F08051C0F8001B002070474B78F7
:102F50000A7800EB4212012B14D0D2F8003B002B70
:102F600005DBD2F8003B23F08043C2F8003B097830
:102F700000EB4110D0F8001B41F40011C0F8001B19
:102F800000207047D2F80039002B05DBD2F8003959
:102F900023F08043C2F80039097800EB4110D0F8E3
:102FA000001941F40011C0F80019E9E778B54E782E
:102FB0006FF06045834C0B7800EB4313012E2FD04C
:102FC000D3F8106B6FF31206C3F8106B0B7800EB9D
:102FD0004313D3F8106B2640C3F8106B4B69002BDA
:102FE0007DD08C6823445B1EB3FBF4F39BB20C785A
:102FF00000EB4414D4F8106B05EAC3452E43C4F823
:10300000106B0C7800EB4414D4F8105B8E685E43B0
:10301000C6F312031D43C4F8105B012A73D0B2E05B
:103020004E6966B3D3F810696FF31206C3F81069DE
:103030000B7800EB4313D3F810692640C3F81069EE
:103040004C698B681C44641EB4FBF3F305EAC3446B
:103050000B7800EB4313D3F810592C43C3F81049F5
:103060000B7800EB4313D3F810494D69C5F31205F3
:103070002C43C3F81049CB78012B16D027E0D3F8A6
:1030800010592540C3F810590B7800EB4313D3F8BF
:10309000104944F40024C3F810490B7800EB4313A3
:1030A000D3F810496FF312040FE00B7800EB4313D1
:1030B000D3F8104924F0C044C3F810490B7800EB52
:1030C0004313D3F8104944F00054C3F81049012ABF
:1030D00012D0CB78012B17D04B692BB300E037E02F
:1030E000D0F834380D780124AC402343C0F834388C
:1030F000CB78012B08D017E00C7800EB44140B6957
:10310000C4F81439F4E738E0D0F80838DB050B7858
:1031100000EB4313D3F8004902D444F0005401E01B
:1031200044F08054C3F800490B7800EB4313D3F804
:10313000004944F00444C3F80049CB78012B3ED148
:1031400000928A8A93B20A78C96800F0E7F836E0FC
:103150000B7800EB4313D3F8104B8D68C5F31205C1
:103160002C43C3F8104B0B7800EB4313D3F8104BF0
:1031700044F40024C3F8104B4FE70B7800EB4313E3
:10318000CA68C3F8142BCA78012A0FD1D0F80828CE
:10319000D2050A7800EB4212D2F8003B02D443F089
:1031A000005301E043F08053C2F8003B097800EB84
:1031B0004110D0F8001B41F00441C0F8001B002072
:1031C00078BD0000FFFF07E0816841F001018160E8
:1031D00000207047002110220261054A491C9142DB
:1031E00001D9032070470369DB06F7D4002070473C
:1031F000400D03000022202343EA811101610549AB
:10320000521C8A4201D90320704703699B06F7D4F8
:1032100000207047400D03000021D0F8082812F06C
:10322000060F15D0D0F80828C2F34102012A0CD0AD
:10323000D0F80828C2F34102032A06D0D0F80808C3
:10324000C0F34100022802D002E0032100E0022185
:1032500008467047406900F001007047D0F8181820
:10326000D0F81C08084080B27047D0F81818D0F881
:103270001C080840000C7047D0F81038D0F83428EB
:10328000CA4002F0010243EAC21200EB4110D0F83A
:1032900008091040704700EB4111D1F8081BD0F825
:1032A000140808407047416980690840704710B5AC
:1032B00003460020D21C920803F5805303E01C68EB
:1032C00041F8044B401C9042F9D3084610BD10B59C
:1032D000C26822F0C042C260012901D021B107E0DA
:1032E000C16841F0005102E0C16841F08041C16015
:1032F0003220FDF781F9002010BDD0F8002822F41B
:10330000FE62C0F80028D0F800284FF4FE6303EAFC
:1033100001110A43C0F800280020704730B500248E
:10332000039D6DB9DB1C9B0800EB023000F580505B
:1033300004E000BF51F8042B0260641C9C42F9D3E6
:10334000002030BDFEE702E008C8121F08C1002AB5
:10335000FAD170477047002001E001C1121F002A16
:10336000FBD1704710B5002821D0114B0022001F5F
:10337000196803E0814203D80A4649680029F9D157
:1033800052B11368841A9C4204D10068184410603A
:10339000104602E0506000E0186039B102680B1A74
:1033A000934203D10B681A4402604968416010BD22
:1033B0007801002086B018220C496846FCF731FFDE
:1033C000FDF718FAFEF7BAFCFEF748FBFEF7C6FB5E
:1033D000FEF7A4FBFDF738F8012218210448FCF79A
:1033E000E1FF00BFFDF750F8FCE700006034000883
:1033F00000000020F0B50B30154D20F0070100242F
:10340000144A0FE003688B420BD38B4205D95E1A36
:1034100043184768C3E9006700E04368136002C0CF
:1034200004E0021D10680028ECD12046002802D1DB
:10343000286808B10020F0BD064A07481060074A16
:10344000121A22F00702C0E9002401202860D7E701
:103450007C01002078010020740A0020702A0020DE
:1034600068656C6C6F5F776F726C640000000000C1
:103470000000000000000000000000000001020346
:103480000406070809000000A83400080000002016
:1034900080010000A80200086835000880010020B3
:1034A000F068000056330008411349211B087904D5
:1034B0001A85041AAD041AD9041A29041A550417D6
:1034C0000403090412011402020216408304405747
:1034D0002602010203011381051B087D041A7904E9
:1034E0001AA50481191B1182109324F4130A0632C1
:1034F000022A40201C09024347111DC03209043131
:103500001A020B13052416100105240110090104E9
:10351000240202052406170107058203081C10096E
:10352000047D320A1D07050102432C0705810709A6
:1035300038442A40072A8107112B0907440A22042C
:10354000440A16FF4413051F1408731E1B08E108E4
:10355000411AAF0C1A31041A4504C12AED2419048A
:083560001AF9049AD51C0000C1
:040000050800018965
:00000001FF
